:100000000C943A000C9457000C9457000C94570031
:100010000C9457000C9457000C9457000C94570004
:100020000C9457000C9457000C9457000C945700F4
:100030000C9457000C94DF000C9457000C9457005C
:100040000C9457000C9457000C947D000C945700AE
:100050000C9457000C9457000C9457000C945700C4
:100060000C9457000C9457006364696E6F7073753D
:1000700078585B0011241FBECFEFD8E0DEBFCDBFA4
:1000800014E0A0E0B1E0EAE5F1E102C005900D92D4
:10009000A638B107D9F726E0A6E8B4E001C01D9262
:1000A000A439B207E1F70E9462010C94AB080C94EA
:1000B0000000F89480918D06811108C083B781609B
:1000C00083BF7894889583B78E7F83BFF89480919F
:1000D0008D06882339F010928D068091C6007894A1
:1000E00090E008957894E5CF9091C00095FFFCCF03
:1000F0008093C60080E090E008951F920F920FB6A3
:100100000F9211248F9381E080938D068F910F9031
:100110000FBE0F901F9018951092C5001092C4004A
:1001200086E08093C20088E98093C100089584E24C
:1001300092E00E94820287EA91E60197F1F700C0FF
:100140000000F89483B7816083BF8895FFCFF8944F
:100150008091860490918704A0918804B0918904CD
:1001600020918400309185007894DC0199278827BC
:10017000BC01CD01620F731F811D911D0895CF93A6
:10018000C82F10928604109287041092880410924F
:100190008904811103C063E372E002C060E372E08E
:1001A0008EE091E00E946502CC2329F081E08093EB
:1001B0008100789402C010928100CF9108951F921F
:1001C0000F920FB60F9211242F933F934F935F938B
:1001D0006F937F938F939F93AF93BF93EF93FF930F
:1001E00080918C06811126C08091860490918704AD
:1001F000A0918804B09189040196A11DB11D80933E
:10020000860490938704A0938804B0938904809116
:10021000860490918704A0918804B091890488395C
:100220009105A105B10508F187E392E00E948202E1
:100230000E94970080918A0690918B06E0911E02A1
:10024000F0911F02E80FF91F2081DC01A25EBE4F72
:100250002C9380810E94BF0080918A0690918B062A
:10026000019690938B0680938A06FF91EF91BF9140
:10027000AF919F918F917F916F915F914F913F913E
:100280002F910F900FBE0F901F9018959F938F93F3
:100290008DE492E09F938F930E94B2020F900F9093
:1002A0000F900F9008958EE091E09F938F9383E5D8
:1002B00092E09F938F930E946C020F900F900F908B
:1002C0000F9008950E948C0080E091E09093910639
:1002D0008093900690938F0680938E0610928000F4
:1002E00081E080936F008FE592E00E9482028CE6AD
:1002F00092E00E94820280E090E00E9459008A30E1
:1003000009F0D3C081E00E94BF00CAEAD2E009EB45
:1003100012E031ECE32E32E0F32E0E9453010E94F2
:10032000A7009F938F937F936F93DF93CF930E9448
:100330006C021F930F930E946C028AE894E00E9463
:100340004601FF92EF920E946C028AE895E00E94BB
:1003500046016CEC72E08AE894E00E945C022DB7E2
:100360003EB7265F3F4F0FB6F8943EBF0FBE2DBF7E
:10037000892B39F560912202709123028AE895E079
:100380000E945C02892BE9F482ED92E00E948202D5
:10039000F89480E00E94BF00789481E080938C06FE
:1003A000CAE4D3E00EE111E08CE5E82E83E0F82EFC
:1003B00097E7C92E93E0D92E23E5A22E23E0B22E93
:1003C00014C082EE92E00E948202A7CF833394F59C
:1003D000813309F06CC0BF92AF920E946C028EE133
:1003E00091E00E9446010F900F900E94530187EF09
:1003F00092E00E9482028DEF92E00E94820283E1ED
:1004000093E00E94820288E293E00E94820281E4EB
:1004100093E00E948202DF93CF930E946C028AE8ED
:1004200094E00E9446010F900F9080918A048233DD
:1004300069F605C0833371F08433B9F138C01F9376
:100440000F93FF92EF920E946C020F900F900F900B
:100450000F90CBCFDF92CF920E946C028AE894E09B
:100460000E944601E0912002F0912102AAE8B4E046
:100470000F900F9080E02191222321F09D919227EF
:10048000892BF9CF882319F08BE993E012C08AEA0F
:1004900093E00E94820281E00E94BF00809181006F
:1004A0008111FCCF85ED93E004C00E9497008BED95
:1004B00093E00E94820299CFFB01DC018D910190B3
:1004C00080190110D9F3990B0895FB01DC0101900B
:1004D0000D920020E1F70895A0E0B0E0E2E7F2E03D
:1004E0000C948408AE014B5F5F4FFA0161917191EA
:1004F000AF0180919006909191060E94C802E2E0BF
:100500000C94A0080F931F93CF93DF93E091900674
:10051000F0919106238121FF1BC08C01D0E0C0E047
:10052000F80181918F016091900670919106DB0135
:100530001896ED91FC911997882331F00995892B34
:1005400079F3DFEFCFEFECCF8AE00995892B19F033
:100550008FEF9FEF02C08D2F9C2FDF91CF911F91C6
:100560000F910895A0E0B0E0E8EBF2E00C9484086D
:10057000AE014B5F5F4FFA0161917191AF018091C4
:100580008E0690918F060E944506E2E00C94A0082A
:10059000ABE0B0E0EEECF2E00C9474086C017B018F
:1005A0008A01FC0117821682838181FFCCC1CE01B2
:1005B00001963C01F6019381F70193FD859193FF2C
:1005C00081917F01882309F4BAC1853239F493FD02
:1005D000859193FF81917F01853229F4B60190E0E6
:1005E0000E94BE07E7CF912C212C312CFFE1F3159F
:1005F000D8F08B3279F038F4803279F08332A1F47C
:10060000232D20611DC08D3261F0803369F4232DCC
:10061000216016C0832D8260382EE32DE4603E2ECB
:100620002AC0F32DF8601DC037FC2DC020ED280F27
:100630002A3040F08E32B9F436FC81C1232D20647B
:10064000322E19C036FE06C08AE0989E200D112475
:10065000922E11C0EAE02E9E200D1124222EF32DA1
:10066000F0623F2E08C08C3621F4832D8068382E2E
:1006700002C0883641F4F70193FD859193FF819183
:100680007F018111B3CF982F9F7D9554933028F42B
:100690000C5F1F4F9FE399830DC0833631F0833782
:1006A00071F0833509F059C021C0F8018081898338
:1006B0000E5F1F4F88248394912C530113C028018F
:1006C000F2E04F0E511CF801A080B18036FE03C04D
:1006D000692D70E002C06FEF7FEFC5010E947507C2
:1006E0004C018201F32DFF773F2E16C0280122E036
:1006F000420E511CF801A080B18036FE03C0692D66
:1007000070E002C06FEF7FEFC5010E946A074C01E5
:10071000F32DF0683F2E820133FC1BC0822D90E048
:1007200088169906B0F4B60180E290E00E94BE07F8
:100730002A94F4CFF50137FC859137FE81915F0152
:10074000B60190E00E94BE0721102A9421E0821A8F
:1007500091088114910471F7E8C0843611F089364C
:1007600041F5F80137FE07C0608171818281938174
:100770000C5F1F4F08C060817181072E000C880B31
:10078000990B0E5F1F4FF32DFF763F2E97FF09C089
:1007900090958095709561957F4F8F4F9F4FF06832
:1007A0003F2E2AE030E0A3010E941308882E86180D
:1007B00045C0853731F4232D2F7EB22E2AE030E05C
:1007C00025C0932D997FB92E8F36C1F018F4883546
:1007D00079F0B5C0803719F0883721F0B0C0E92F23
:1007E000E061BE2EB4FE0DC0FB2DF460BF2E09C02B
:1007F00034FE0AC0292F2660B22E06C028E030E061
:1008000005C020E130E002C020E132E0F801B7FE8F
:1008100007C060817181828193810C5F1F4F06C088
:100820006081718180E090E00E5F1F4FA3010E9404
:100830001308882E8618FB2DFF773F2E36FE0DC03D
:10084000232D2E7FA22E891458F434FE0BC032FCC7
:1008500009C0832D8E7EA82E05C0B82CA32C03C002
:10086000B82C01C0B92CA4FE0FC0FE01E80DF11D8B
:100870008081803321F49A2D997EA92E09C0A2FE91
:1008800006C0B394B39404C08A2D867809F0B3945B
:10089000A3FC11C0A0FE06C0B21488F4280C922C50
:1008A0009B180EC0B21460F4B60180E290E00E9482
:1008B000BE07B394F7CFB21418F42B1802C0982CCB
:1008C000212CA4FE10C0B60180E390E00E94BE0778
:1008D000A2FE17C0A1FC03C088E790E002C088E533
:1008E00090E0B6010CC08A2D867859F0A1FE02C0B6
:1008F0008BE201C080E2A7FC8DE2B60190E00E948D
:10090000BE07891438F4B60180E390E00E94BE0768
:100910009A94F7CF8A94F301E80DF11D8081B60116
:1009200090E00E94BE078110F5CF222009F442CE4C
:10093000B60180E290E00E94BE072A94F6CFF6014D
:100940008681978102C08FEF9FEF2B96E2E10C9496
:10095000900820FD09C0FC0123FD05C022FF02C054
:100960007383628351834083089544FD17C046FD1D
:1009700017C0AB01BC01DA01FB01AA0FBB1FEE1FC0
:10098000FF1F1094D1F74A0F5B1F6E1F7F1FCB0113
:10099000BA01660F771F881F991F09C033E001C095
:1009A00034E0660F771F881F991F3150D1F7620F0F
:1009B000711D811D911D08950F931F93CF93DF9398
:1009C0008C01C8010E948007EC0197FD08C00E94BD
:1009D0005607892BB1F7B801CE010E94FA07CE0164
:1009E000DF91CF911F910F9108958F929F92AF92B7
:1009F000BF92EF92FF920F931F93CF93DF938C01DF
:100A0000D62F7A01B22E0E9480079C0133272B3209
:100A1000310531F02D32310561F48B2D8068B82E0F
:100A2000D15011F480E068C0C8010E94800797FD92
:100A3000F9CFCB2DCD7F2B2D207309F58033F9F421
:100A4000AA24AA94AD0E09F443C0C8010E948007ED
:100A500097FD3EC09C012F7D33272835310549F491
:100A6000C264D250A9F1C8010E94800797FF07C055
:100A70002FC0B6FE02C0C26001C0C261DA2D812C57
:100A8000912C540120ED280F283080F0C4FF04C0C1
:100A9000B8010E94FA0719C02A3040F0C6FFF8CF0B
:100AA0002F7D3FEE320F363098F727504C2FC5017F
:100AB000B4010E94B5044B015C01C260D15059F0F1
:100AC000C8010E94800797FFDDCFC1FD04C0AACFF7
:100AD000812C912C5401C7FF08C0B094A09490942D
:100AE0008094811C911CA11CB11C2C2FB501A40168
:100AF000C7010E94A90481E0DF91CF911F910F915E
:100B0000FF90EF90BF90AF909F908F900895A0E2DC
:100B1000B0E0EDE8F5E00C9477085C01962E7A01E0
:100B2000F9018E010F5F1F4F680180E2D8011D920D
:100B30008A95E9F7D50113968C9080E090E0612CBE
:100B4000712C30E061E070E083FC259183FE2191FF
:100B50008F01522E211103C080E090E092C02E350B
:100B600011F4009751F1432F50E0481759073CF416
:100B70002D3559F12D3219F4772009F103C0772072
:100B800009F46AC0452D469546954695D601A40FB1
:100B9000B11D452D47708B0102C0000F111F4A95F2
:100BA000E2F7A8015C91452B4C93651459F056145B
:100BB00010F45394E7CF5A94E5CF31E004C0772482
:100BC000739401C0712C0196BFCF772019F08E81EC
:100BD00080628E83311103C08824839417C0F6018C
:100BE0009E012F5D3F4F8081809581932E173F0797
:100BF000D1F7F2CFE114F10429F0D7018C93F7017A
:100C000031967F019A94812C9920F9F0C5010E94B8
:100C1000800797FD18C0FC01FF2723E0F595E795B5
:100C20002A95E1F7EC0DFD1D208130E0AC01477005
:100C3000552702C0359527954A95E2F720FDDACF72
:100C4000B5010E94FA07811087CFE114F10411F079
:100C5000D7011C92C80115C0422F4695469546956E
:100C6000D601A40FB11D422F47708B0102C0000FA7
:100C7000111F4A95E2F7A8015C91452B4C93622E17
:100C8000A2CFA096EFE00C949308A0E0B0E0EBE4D4
:100C9000F6E00C9477086C01EB015A01FC01178215
:100CA0001682512CF601E380FE01E3FC8591E3FE00
:100CB0008191182FEF01882309F4EEC090E00E9483
:100CC0005607892B21F0C6010E94DC04EBCF1532B8
:100CD00041F4FE01E3FC1591E3FE1191EF011532A1
:100CE00081F4C6010E94800797FDD4C0412F50E0D7
:100CF0009C01332724173507A9F2B6010E94FA0791
:100D0000CBC01A3239F4E3FC1591E3FE1191EF01E7
:100D100001E001C000E0F12C20ED210F2A3080F429
:100D200002606F2D70E080E090E040E20E94B50428
:100D3000F62EFE01E3FC1591E3FE1191EF01ECCFDD
:100D400001FF03C0F11003C0A7C0FF24FA941836B6
:100D500019F01C3651F010C0FE01E3FC1591E3FEC2
:100D60001191EF01183641F408600460FE01E3FCC4
:100D70001591E3FE1191EF01112309F48DC0612F4C
:100D800070E088E690E00E945F07892B09F484C038
:100D900000FD07C0F50180809180C50102965C01CD
:100DA00002C0812C912C1E3651F4F60146815781E8
:100DB00060E070E0202FC4010E94A90473CF1336B5
:100DC000A9F401FD02C0FF24F394C6010E9480072C
:100DD00097FD60C08114910429F0F4018083C4015F
:100DE00001964C01FA94F110F0CF50C01B3559F424
:100DF0009E01A4016F2DC6010E948705EC01892B7D
:100E000009F044C03EC0C6010E94DC0497FD42C008
:100E10001F3661F128F4143639F1193651F128C022
:100E2000133771F0153701F123C08114910429F0B3
:100E3000F4016082C40101964C01FA94FF2071F024
:100E4000C6010E9480073C0197FD08C00E9456071A
:100E5000892B59F3B601C3010E94FA07811491044A
:100E6000A9F0F401108212C0006203C0006101C049
:100E70000064202FA4016F2DC6010E94F50481118A
:100E800005C0F6018381807329F406C000FD0ACFF6
:100E9000539408CF552019F0852D90E002C08FEFB4
:100EA0009FEFCDB7DEB7EFE00C94930891110C944F
:100EB0007108803219F089508550C8F70895FC01F7
:100EC0000590061621F00020D9F7C001089531974A
:100ED000CF010895FC010590615070400110D8F7D2
:100EE000809590958E0F9F1F0895FC016150704072
:100EF00001900110D8F7809590958E0F9F1F08954F
:100F0000CF93DF93EC012B8120FF33C026FF0AC073
:100F10002F7B2B838E819F8101969F838E838A8175
:100F200090E029C022FF0FC0E881F9818081082E5E
:100F3000000C990B009719F420622B831AC031968C
:100F4000F983E8830EC0EA85FB85099597FF09C000
:100F50002B81019611F080E201C080E1822B8B830E
:100F600008C02E813F812F5F3F4F3F832E839927FB
:100F700002C08FEF9FEFDF91CF9108950F931F93E2
:100F8000CF93DF93FB01238121FD03C08FEF9FEF00
:100F90002CC022FF16C0468157812481358142171B
:100FA000530744F4A081B1819D012F5F3F4F3183EE
:100FB00020838C93268137812F5F3F4F3783268391
:100FC00014C08B01EC01FB010084F185E02D099533
:100FD000892BE1F6D80116968D919C911797019671
:100FE00017969C938E931697CE01DF91CF911F9108
:100FF0000F910895FB01238120FF12C026FD10C030
:101000008F3F3FEF930761F082832F7D206423831E
:101010002681378121503109378326839927089506
:101020008FEF9FEF0895FA01AA27283051F1203160
:1010300081F1E8946F936E7F6E5F7F4F8F4F9F4F6C
:10104000AF4FB1E03ED0B4E03CD0670F781F891FAE
:101050009A1FA11D680F791F8A1F911DA11D6A0F7C
:10106000711D811D911DA11D20D009F468943F912F
:101070002AE0269F11243019305D3193DEF6CF012E
:101080000895462F4770405D4193B3E00FD0C9F7F4
:10109000F6CF462F4F70405D4A3318F0495D31FD61
:1010A0004052419302D0A9F7EACFB4E0A6959795B4
:1010B000879577956795BA95C9F70097610571058A
:1010C00008959B01AC010A2E0694579547953795D4
:1010D0002795BA95C9F7620F731F841F951FA01D2E
:1010E00008959927882708952F923F924F925F92F3
:1010F0006F927F928F929F92AF92BF92CF92DF9228
:10110000EF92FF920F931F93CF93DF93CDB7DEB78C
:10111000CA1BDB0B0FB6F894DEBF0FBECDBF099420
:101120002A88398848885F846E847D848C849B8477
:10113000AA84B984C884DF80EE80FD800C811B8185
:10114000AA81B981CE0FD11D0FB6F894DEBF0FBEB4
:0A115000CDBFED010895F894FFCF24
:10115A0000000003000000007400590000006F66E0
:10116A0066000000000000000000000000004F7050
:10117A0065726174696F6E20534945525241205419
:10118A00414E474F20524F4D454F3A0A52616469CA
:10119A006F206672657175656E63793A2031332EF8
:1011AA0033374D487A0A5265636569766564206DFE
:1011BA006573736167653A2041545441434B20413A
:1011CA0054204441574E0A0000000000000000006D
:1011DA000000000000000000000000000000000005
:1011EA0000000000000000000000000000000000F5
:1011FA0000000000000000000000000000000000E5
:10120A0000000000000000000000000000000000D4
:10121A0000000000000000000000000000000000C4
:10122A0000000000000000000000000000000000B4
:10123A0000000000000000000000000000000000A4
:10124A000000000000000000000000000000000094
:10125A000000000000000000000000000000000084
:10126A000000000000000000000000000000EB0386
:10127A00450470045175697474696E672E2E2E00C8
:10128A006F6E006F66660054696D6564206F7574D1
:10129A00206C6F6767696E6720696E2E0025323091
:1012AA0030730054696D65723A2025732E0A00491D
:1012BA006E697469616C697A65642E0057656C633E
:1012CA006F6D6520746F20736563726574206D6934
:1012DA006C69746172792064617461626173652EEC
:1012EA0020507265737320454E54455220746F2006
:1012FA00636F6E74696E75652E00557074696D65DD
:10130A003A20256C6475730A004C6F67696E3A203F
:10131A000050617373776F72643A20006167656E7B
:10132A007400416363657373206772616E746564E8
:10133A002E0057726F6E6720757365722F70617316
:10134A0073776F72642E004D656E753A00312E20E8
:10135A0053746F7265207365637265742064617477
:10136A00612E00322E2052656164207365637265B6
:10137A007420646174612E00332E20436F707920CB
:10138A00746F702073656372657420646174612E72
:10139A0000342E20457869742E0043686F696365AE
:1013AA003A20005365637265743A200053746F7271
:1013BA006564207365637265743A0A2D2D2D0A25BA
:1013CA00730A2D2D2D0A00456E74657220746F7094
:1013DA00207365637265742064617461206163635C
:1013EA0065737320636F64653A20004163636573B4
:1013FA00732064656E6965642E0041636365737367
:10140A00206772616E7465642E0A436F7079696E23
:10141A006720746F702073656372657420646174E9
:10142A00612E2E2E00446F6E652E00496E76616C19
:10143A006964206F7074696F6E2E00494E54454C72
:10144A004C4947454E4345205245504F52543A0A5B
:10145A00464C414720434150545552454420465238
:10146A004F4D20454E454D592E0A464C414720497D
:10147A0053204354467B5F5245414C5F464C41479B
:10148A005F49535F4F4E5F5448455F534552564537
:10149A00525F7D2E00544F505345435245545F507E
:1014AA00415353574F52445F414C534F5F52454447
:1014BA0041435445445F544F5053454352455400A9
:1014CA0050415353574F52445F5245444143544548
:0614DA00445F58595A005E
:00000001FF
