:100000000C9465070C948D070C948D070C948D0748
:100010000C948D070C948D070C948D070C948D0710
:100020000C948D070C948D070C94EA130C942D15E9
:100030000C948D070C948D070C948D070C948D07F0
:100040000C948D070C94360A0C948D070C948D0734
:100050000C948D070C948D070C948D070C948A09D1
:100060000C948D070C948D070C948D070C948D07C0
:100070000C948D070C948D070C948D070C948D07B0
:100080000C94D4090C948D070C948D070C948D0757
:100090000C948D070C948D070C948D070C948D0790
:1000A0000C948D070C948D070C948D07E60FE90FC7
:1000B000D80FDC0FE00F0A100A100A10ED0FF10F35
:1000C000F50FFB0FFF0F0A100510811086108B1023
:1000D00095109F10E910E910E910A910B310BD1098
:1000E000C710D410E910DC10746F2073746172743F
:1000F00021005072657373206120627574746F6E95
:1001000000000000000000000000000000000000EF
:1001100000000000000000000000000000000000DF
:1001200000000000000000000000000000000000CF
:1001300000000000000000000000000000000000BF
:1001400000001E3FC79F3FE3FF1E7803FE1FE3CF63
:1001500080001E7FE79F3FF3FF9E7803CF3FF3CFE2
:1001600080001E79E79F3CF3CF9E7803CF3CF3CF0E
:1001700080001E79E7DF3CF3CF9E7803CF3CF3CFBE
:1001800080001E79E7FF3CF3CF9FF803FE3CF3FFAE
:1001900080001E79E7FF3CF3CF8FF003FE3CF1FEB9
:1001A00000001E79E79F3CF3CF83C003CF3CF0787B
:1001B00000001E79E79F3CF3CF83C003CF3CF0786B
:1001C0000007FE7FE79F3CF3CF83C003FE3FF0783C
:1001D0000007FC3FC79F3CF3CF83C003FE1FE078BE
:1001E000000000000000000000000000000000000F
:1001F00000000000000000000000000000000000FF
:1002000000000000000000000000000000000000EE
:1002100000000000000000000000000000000000DE
:1002200000000000000000000000000000000000CE
:1002300000000000000000000000000000000000BE
:1002400000000000000000000000000000000000AE
:10025000000000007E7C7E7E703F01FBF8FC000009
:1002600000000000FEFEFE7E707F03FBF9FC000034
:1002700000000000E0EEE66070700380E1C0000066
:1002800000000000EEEEE66E707C0380E1F00000FE
:1002900000000000EEEEE66F707C0380E1F00000ED
:1002A00000000000EEEEE66770700380E1C0000021
:1002B00000000000FEFEFE7F7F7F03F8E1C000002B
:1002C000000000000000000000000000000000002E
:1002D000000000000000000000000000000000001E
:1002E000000000000000000000000000000000000E
:1002F000009058004B80905B00B480F047616D65C2
:10030000204F766572212054727920616761696E91
:1003100021000000000000000000000000000000BC
:1003200000000000000000000000000000000000CD
:1003300000000000000000C01E00C180000000009E
:1003400000000F00000000C00600C0000003000015
:1003500000001B3B637BB9FEC639F78ED8F3000063
:100360000000186DB6CEECC6C66CC19B6DC3000014
:100370000000186DB6CC3CC6C63CC19B6CF30000B7
:1003800000001B6DB6CC6CD6C66CD99B6C380000D7
:1003900000000E39B3DE7E73FFFE77EE6DF30000D2
:1003A0000000000000C0000000000000000000008D
:1003B00000000000078000000000000000000000B6
:1003C000000000000000000000000000000000002D
:1003D000000000000000000000000000000000001D
:1003E000000000000000000000000000000000000D
:1003F00000000000000000000000000000000000FD
:1004000000000000000000000000000000000000EC
:1004100000000000000000000000000000000000DC
:10042000000000000E000077800001800000000046
:1004300000000003F60000C1800000000000000082
:1004400000000002D78E01F18E36078F00000000F9
:1004500000000000C6DB00C19B6C019C3000000066
:1004600000000000C6DF00C18F6C018F000000009B
:1004700000000000C6D800C19B6C01838000000012
:1004800000000001E6CF01F7FFBC07FF30000000CD
:100490000000000000000000000C00000000000050
:1004A00000000000000000000078000000000000D4
:1004B000000000000000000000000000000000003C
:1004C000000000000000000000000000000000002C
:1004D000000000000000000000000000000000001C
:1004E000000000000000000000000000000000000C
:1004F00000000000000000000000000000000000FC
:1005000000000000000000000000000000000000EB
:100510000000000000C03B800000000E00003838E2
:1005200000180FFFF18F6D8000000F9B0000186C0A
:10053000000C1BB581866DEDB6EE06C3F8EF9E0D7F
:10054000BBCC1831E3066DB6DB6C06CE7DB7DB386D
:10055000EF06183181B66DB6DB6C078355F55B0C81
:10056000C3CC1B3181B66DB6DB2806DB55855B6CD1
:10057000C0EC0E7BC19C39B6DB380F6E54F57E396A
:10058000E7CC000000C000000030000000000000C8
:10059000001800000000000000E1F800000000006A
:1005A000000000000000000000000000000000004B
:1005B000000000000000000000000000000000003B
:1005C000000000000000000000000000000000002B
:1005D000000000000000000000000000000000001B
:1005E000000000000000000000000000000000000B
:1005F00000000000000000000000000000000000FB
:1006000000000000000000000000000000000000EA
:1006100000000000000000000000000000000000DA
:1006200000000000000000000000000000000000CA
:1006300000000000000000000000000000000000BA
:1006400000000000000000000000000000000000AA
:10065000000000000000000000000000000000009A
:10066000000000000000000000000000000000008A
:10067000000000000000000000000000000000007A
:10068000000000000000000000000000000000006A
:10069000000000000000000000000000000000005A
:1006A000000000000000000000000000000000004A
:1006B000000000000000000000000000000000003A
:1006C000000000000000000000000000000000002A
:1006D000000000000000000000000000000000001A
:1006E000000000000000000000000000000000000A
:1006F00000000000000000000000000000000000FA
:1007000000000000000000000000000000000000E9
:10071000000000000000003E5B4F5B3E3E6B4F6BF5
:100720003E1C3E7C3E1C183C7E3C181C577D571CD2
:100730001C5E7F5E1C00183C1800FFE7C3E7FF004B
:1007400018241800FFE7DBE7FF30483A060E262999
:10075000792926407F050507407F05253F5A3CE75C
:100760003C5A7F3E1C1C08081C1C3E7F14227F2222
:10077000145F5F005F5F06097F017F006689956AED
:10078000606060606094A2FFA29408047E04081078
:10079000207E201008082A1C08081C2A08081E10A1
:1007A0001010100C1E0C1E0C30383E3830060E3E59
:1007B0000E06000000000000005F000000070007B8
:1007C00000147F147F14242A7F2A122313086462E2
:1007D00036495620500008070300001C2241000043
:1007E00041221C002A1C7F1C2A08083E08080080A1
:1007F0007030000808080808000060600020100839
:1008000004023E5149453E00427F40007249494939
:10081000462141494D331814127F1027454545396B
:100820003C4A49493141211109073649494936466F
:100830004949291E0000140000004034000000084F
:1008400014224114141414140041221408020159F2
:1008500009063E415D594E7C1211127C7F4949497F
:10086000363E414141227F4141413E7F4949494114
:100870007F090909013E414151737F0808087F0043
:10088000417F41002040413F017F081422417F40C9
:100890004040407F021C027F7F0408107F3E4141A0
:1008A000413E7F090909063E4151215E7F09192910
:1008B00046264949493203017F01033F4040403FFA
:1008C0001F2040201F3F4038403F6314081463033B
:1008D000047804036159494D43007F4141410204BA
:1008E000081020004141417F0402010204404040C1
:1008F0004040000307080020545478407F284444B7
:10090000383844444428384444287F3854545418D0
:1009100000087E090218A4A49C787F0804047800CB
:10092000447D40002040403D007F102844000041AD
:100930007F40007C047804787C08040478384444C0
:100940004438FC1824241818242418FC7C080404B7
:1009500008485454542404043F44243C4040207C20
:100960001C2040201C3C4030403C44281028444C73
:100970009090907C4464544C440008364100000040
:10098000770000004136080002010204023C2623E1
:10099000263C1EA1A161123A4040207A3854545599
:1009A0005921555579412154547841215554784065
:1009B00020545579400C1E527212395555555939EB
:1009C0005454545939555454580000457C41000240
:1009D000457D420001457C40F0292429F0F028257E
:1009E00028F07C545545002054547C547C0A097FDF
:1009F0004932494949323248484832324A484830F7
:100A00003A4141217A3A42402078009DA0A07D39A8
:100A1000444444393D4040403D3C24FF2424487E2A
:100A20004943662B2FFC2F2BFF0929F620C0887E17
:100A3000090320545479410000447D413048484A1C
:100A400032384040227A007A0A0A727D0D19317DCF
:100A50002629292F28262929292630484D402038A3
:100A60000808080808080808382F10C8ACBA2F1062
:100A70002834FA00007B000008142A142222142AC9
:100A800014089500220095AA005500AAAA55AA5557
:100A9000AA000000FF00101010FF00141414FF0043
:100AA0001010FF00FF1010F010F0141414FC0014CC
:100AB00014F700FF0000FF00FF1414F404FC1414EA
:100AC00017101F10101F101F1414141F00101010E7
:100AD000F0000000001F101010101F10101010F078
:100AE00010000000FF101010101010101010FF1058
:100AF000000000FF140000FF00FF00001F1017009F
:100B000000FC04F414141710171414F404F4000077
:100B1000FF00F714141414141414F700F714141429
:100B2000171410101F101F141414F4141010F010C8
:100B3000F000001F101F0000001F14000000FC1434
:100B40000000F010F01010FF10FF141414FF141028
:100B500010101F00000000F010FFFFFFFFFFF0F07B
:100B6000F0F0F0FFFFFF0000000000FFFF0F0F0F8D
:100B70000F0F38444438447C2A2A3E147E02020671
:100B800006027E027E0263554941633844443C04B8
:100B9000407E201E2006027E020299A5E7A5991C30
:100BA0002A492A1C4C7201724C304A4D4D30304853
:100BB000784830BC625A463D3E494949007E0101B1
:100BC000017E2A2A2A2A2A44445F444440514A4446
:100BD0004040444A51400000FF0103E080FF000014
:100BE00008086B6B083612362436060F090F06000C
:100BF0000018180000001010003040FF0101001F15
:100C000001011E00191D1712003C3C3C3C00000075
:100C1000000006011501260137014A015D0172013C
:100C200088019F01B801D201EE010B022A024B029A
:100C30006E029302BA02E40210033F037003A4039E
:100C4000DC03170455049704DD0427057505C80562
:100C500020067D06E0064907B8072D08A9082D09DA
:100C6000B9094D0AEA0A900B400CFA0CC00D910E1E
:100C70006F0F5A1053115B1272139A14D415201768
:100C80008018F519801B231DDE1EB420A622B52472
:100C9000E4263429A72B402E0031EA330037453AA9
:100CA000BC3D68414C456B49C84D68524F57805C0C
:100CB000006210111213151617181A1C1D1F21237C
:100CC0002527292C2E3134373A3E4145494E52577B
:100CD0005C62686E757B838B939CA5AFB9C4D0DCD6
:100CE000E9F70000000200090F0000030401000CF6
:100CF00000000000000000000000000000000000F4
:100D000000F0F89C8E8783878E9CF8F00000FEFF31
:100D10000303030303070EFCF80000FEFF030303B5
:100D20000303070EFCF80000FFFF000000000000B6
:100D300000FFFF0000FEFF8383838383C7EE7C38C0
:100D40000000F8FC0E07030303070EFCF800003F49
:100D50007FE0C08080C0E07F3FFFFF010101010113
:100D60000101FFFF0000FFFF0C0C0C0C1C3E77E3A1
:100D7000C100007FFFC0C0C0C0C0E0703F1F0000C6
:100D80001F3F70E0C0C0C0E0703F1F00007FFFC188
:100D9000C1C1C1C1E3773E1C00001F3F70E0C0C06D
:100DA000C0E0703F1F000000000001FFFF010000D5
:100DB0000000000000240027002A002D003000D58C
:100DC000F08D14A1C881CFD9F1AF20000408020131
:100DD0001040804010204080408008020401804084
:100DE000201002011080102040402000000000254B
:100DF0000028002B002E0031000404040404030426
:100E000005020202020403020202020606060606A8
:100E10000604040202020404140213021202150260
:100E2000070208020A020A010B020B01090209016A
:100E300004010C0106010051092709580BD808CB01
:100E400008080B000202020100090400000102026E
:100E500000000524001001052401010104240206FC
:100E60000524060001070581031000400904010064
:100E7000020A000000070502024000000705830285
:100E80004000000403090441726475696E6F204CD0
:100E90004C430041726475696E6F204C656F6E61E2
:100EA00072646F001201000200000040412336808E
:100EB00000010102030112010002EF02014041237F
:100EC0003680000101020301F41A11241FBECFEF86
:100ED000DAE0DEBFCDBF26E0ACE3B1E001C01D9299
:100EE000A835B207E1F711E0A0E0B1E0E2EDFDE3E3
:100EF00002C005900D92AC33B107D9F717E0C5E6F3
:100F0000D7E004C02197FE010E942F1BC436D107F1
:100F1000C9F70E94AA170C94E71E0C940000CF9208
:100F2000DF92EF92FF921F93CF93DF93E82FF0E0D1
:100F3000E05FFE4F1081E62FF0E0603330F4EE54B6
:100F4000F34FE491CE2FD0E006C0EE0FFF1FEE541A
:100F5000F44FC591D4916E01E12CF12C60E074E264
:100F600084EF90E0A70196010E944D1EDA01C901AD
:100F70000197A109B109009721E0A207B10578F016
:100F800060E970ED83E090E0A70196010E944D1E9C
:100F9000DA01C9010197A109B10923E001C021E0EB
:100FA0001130C9F0133051F530919100387F232B67
:100FB000209391009093990080939800D093BC0166
:100FC000C093BB0181E08093BA018091710082607F
:100FD0008093710013C03091BD0131110FC0309169
:100FE0008100387F232B2093810090938900809388
:100FF000880080916F00826080936F00DF91CF91B5
:101000001F91FF90EF90DF90CF900895E82FF0E0D0
:10101000E05FFE4F8081813019F0833089F00895C0
:101020008091BD01811122C080916F008D7F8093DE
:101030006F009091AB01E091A901F091AA010CC061
:101040001092BA018091B901811110C09091B7013D
:10105000E091B501F091B6018081282F30E0892F11
:1010600090E0809590958223932380830895CF9379
:10107000DF93D1E0E091A701F091A8019F012F5FDC
:101080003F4F3093A8012093A7018491982F907F20
:10109000C82FCF70903821F48C2F0E940608EACF19
:1010A0009039F9F4E091D305F091D40509958D2795
:1010B0008093B801E091A701F091A801CF010196BA
:1010C0009093A8018093A70164918091A401C8170F
:1010D00088F6C13009F052C08091A3018111CACFB6
:1010E0004DC097FD3AC03296F093A801E093A70156
:1010F000F901249130E0382BA091BB01B091BC01E3
:101100000E94A11E6C507E4F8F4F9F4F28EE33E000
:1011100040E050E00E947F1E2093B0013093B10167
:101120004093B2015093B3018091B0019091B1010D
:10113000A091B201B091B301892B8A2B8B2B21F5A1
:1011400081E090E0A0E0B0E08093B0019093B10125
:10115000A093B201B093B30117C0903E49F48091BF
:10116000A5019091A6019093A8018093A70182CF39
:10117000903F09F07FCF1092B40106C067FD7ACF8F
:101180008C2F0E948F0776CFDF91CF9108958091A9
:10119000C701089508950E94D312E6EDF5E0118E7F
:1011A000108E178A168A60E482E193E00C94801214
:1011B0000E94D31283E090E09093ED058093EC05BC
:1011C0008EE190E09093EF058093EE058CEF92E036
:1011D0000E945F128091E0058C7039F48091DF05E8
:1011E0008C7019F081E08093CE0108953FB7F89498
:1011F0008091C3019091C401A091C501B091C60135
:1012000026B5A89B05C02F3F19F00196A11DB11D61
:101210003FBFBA2FA92F982F8827820F911DA11D9C
:10122000B11DBC01CD0142E0660F771F881F991FD9
:101230004A95D1F708952FB7F8946091BF01709146
:10124000C0018091C1019091C2012FBF0895E5E8CE
:10125000F1E08DE390E0918380838DE190E09383D2
:10126000828315821482178216820E941B09609362
:101270007D0170937E0180937F0190938001EDE862
:10128000F1E0148211861686138A10928101109261
:101290008201109283011092840182E08093CE013A
:1012A00008950E941B090E941B090E941B090E94AD
:1012B0001B096FE181E091E00E94801287E190E0DC
:1012C0009093ED058093EC0588E290E09093EF0514
:1012D0008093EE0582EF90E00E945F1286E290E03C
:1012E0009093ED058093EC0582E390E09093EF05F9
:1012F0008093EE0588EE90E00E945F128091E005F9
:101300008C7039F48091DF058C7019F081E0809346
:10131000CE0108951F920F920FB60F9211242F93B2
:101320003F938F939F93AF93BF938091BF01909111
:10133000C001A091C101B091C2013091BE0123E072
:10134000230F2D3720F40196A11DB11D05C026E8FD
:10135000230F0296A11DB11D2093BE018093BF01F2
:101360009093C001A093C101B093C2018091C301C9
:101370009091C401A091C501B091C6010196A11D33
:10138000B11D8093C3019093C401A093C501B09394
:10139000C601BF91AF919F918F913F912F910F9077
:1013A0000FBE0F901F9018951F920F920FB60F92BD
:1013B00011242F933F934F935F936F937F938F935A
:1013C0009F93AF93BF93EF93FF938091BA018823CC
:1013D00041F08091B901811104C08091B801882346
:1013E00051F18091B401882381F18091B0019091F5
:1013F000B101A091B201B091B301892B8A2B8B2B43
:1014000021F18091B0019091B101A091B201B09110
:10141000B3010197A109B1098093B0019093B10183
:10142000A093B201B093B301892B8A2B8B2B69F463
:101430000E9437080AC08091B701E091B501F09190
:10144000B601908189278083CCCFFF91EF91BF9126
:10145000AF919F918F917F916F915F914F913F914C
:101460002F910F900FBE0F901F9018951F920F9203
:101470000FB60F9211242F933F938F939F93AF93A7
:10148000BF93EF93FF938091BD01882309F44FC070
:101490008091AC019091AD01A091AE01B091AF01EE
:1014A000892B8A2B8B2B51F18091AB01E091A90103
:1014B000F091AA019081892780838091AC0190915D
:1014C000AD01A091AE01B091AF01181619061A0630
:1014D0001B06D4F58091AC019091AD01A091AE01B5
:1014E000B091AF010197A109B1098093AC0190932C
:1014F000AD01A093AE01B093AF0126C01092B90127
:101500001092BD0180916F008D7F80936F0090914C
:10151000AB01E091A901F091AA018081282F30E070
:10152000892F90E080959095822393230CC0809121
:10153000B801811109C08091AB01E091A901F0913E
:10154000AA01908189278083FF91EF91BF91AF918C
:101550009F918F913F912F910F900FBE0F901F90F1
:101560001895CF93DF939091A401923009F480C035
:10157000292F30E0F901E05FFE4FD081F901EF55EE
:10158000FE4F8083913031F42091A101281302C0D5
:101590009093A301C82F9F5F9093A40161E00E94E4
:1015A0001E10D13019F0D33061F162C08091640017
:1015B000877F809364001092800010928100809158
:1015C0008100886080938100809181008160809398
:1015D00081008C2F90E0FC01E750F24FE491F0E0A5
:1015E000EE0FFF1FE551F24F259134913093AA0180
:1015F0002093A901FC01E453F24F84918093AB0145
:1016000037C080916500877F8093650010929000BD
:101610001092910080919100886080939100809158
:1016200091008160809391008C2F90E0FC01E75045
:10163000F24FE491F0E0EE0FFF1FE551F24F2591DC
:1016400034913093B6012093B501FC01E453F24F7D
:1016500084918093B7018091A401882321F06CE3E9
:1016600080E00E948F0780E0DF91CF910C94060804
:10167000DF91CF9108958FB12CB193B130E02095D7
:10168000309520743327A90123E0559547952A9575
:10169000E1F7292F30E020953095207133273595DB
:1016A000279535952795242B8095807F822B08954B
:1016B0002F923F924F925F926F927F928F929F9262
:1016C000AF92BF92CF92DF92EF92FF920F931F9350
:1016D000CF93DF930E94D3121092EF051092EE0584
:1016E0001092ED051092EC050E94291E29E130E0D0
:1016F00040E050E00E944D1E683171058105910562
:10170000A9F5E1E9F1E080E090E02081211129C014
:1017100025E0289FE001299FD00D1124C357DE4FFB
:1017200081E08C830E94291E2EE730E040E050E0EB
:101730000E944D1EDC01CB010196A11DB11D9983B4
:1017400088830E94291E2EE330E040E050E00E9492
:101750004D1EDC01CB010196A11DB11D9B838A8327
:1017600005C0019635968430910579F68090810107
:1017700090908201A0908301B09084012FE08216A6
:1017800027E29206A104B10418F084E08093CE0110
:101790000E941B0900917D0110917E0120917F0123
:1017A00030918001601B710B820B930B28EE33E0AC
:1017B00040E050E00E947F1E69017A01243131052A
:1017C0004105510590F06FEF70E08AE00E945A10D9
:1017D0006FEF70E08BE00E945A106FEF70E089E0CD
:1017E0000E945A1083E08093CE011092ED05109272
:1017F000EC051092EF051092EE05BF92AF929F920A
:101800008F9209E311E01F930F93CDE3D1E0DF93B3
:10181000CF930E943A1B8DB79EB708960FB6F894E7
:101820009EBF0FBE8DBFFE0101900020E9F73197EA
:10183000AF014D535140BE0186ED95E00E948E0FE1
:1018400083E790E09093ED058093EC051092EF050F
:101850001092EE0584E190E0A0E0B0E08C199D09C3
:10186000AE09BF09BF93AF939F938F931F930F93BD
:10187000DF93CF930E943A1B8DB79EB708960FB6A1
:10188000F8949EBF0FBE8DBF09900020E9F7219705
:10189000AE014D5351406DE371E086ED95E00E943D
:1018A0008E0F0E943B0B87FF09C080918B019091A6
:1018B0008C018D3FEFEF9E070CF066C10E943B0B41
:1018C00084FF08C080918B0190918C018430910538
:1018D0000CF460C10E943B0B85FF09C08091890117
:1018E00090918A018D3FFFEF9F070CF059C10E9434
:1018F0003B0B86FF08C08091890190918A0184305A
:1019000091050CF453C14091890150918A01609175
:10191000850170918601640F751F70938601609335
:10192000850180918B0190918C01209187013091EC
:101930008801280F391F30938801209387016E3763
:1019400071056CF06CE770E070938601609385011F
:1019500051954195510950938A01409389014091D5
:10196000850150918601433051058CF444E050E0EC
:1019700050938601409385014091890150918A01DD
:1019800051954195510950938A0140938901233023
:1019900031056CF424E030E0309388012093870116
:1019A00091958195910990938C0180938B01809101
:1019B000870190918801CE978CF08CE390E0909312
:1019C00088018093870180918B0190918C01919582
:1019D0008195910990938C0180938B0141E9E42ECC
:1019E00041E0F42ECDE8D1E08E0158E0852E912C17
:1019F000A12CB12CCC24CA94D12C71EF272E72E0EB
:101A0000372EF7018081882309F487C080918501F2
:101A100090918601F80160817181AC0143505109B8
:101A20009B012F5F3F4F241735070CF476C00396B8
:101A300061507109861797070CF46FC08091870178
:101A40009091880162817381AC01435051099B01DF
:101A50002F5F3F4F241735070CF45FC0039661508A
:101A60007109861797070CF458C0F701108280910E
:101A7000810190918201A0918301B091840101962E
:101A8000A11DB11D8093810190938201A0938301D8
:101A9000B09384010E94291EA50194010E944D1E4D
:101AA0002B013C01FFEF4F1A5F0A6F0A7F0AD30137
:101AB000C20122E0B595A795979587952A95D1F70C
:101AC00081708195B601681B71098AE00E945A10E5
:101AD000D301C201B595A79597958795817081959A
:101AE000B601681B71098BE00E945A10842D817029
:101AF000482E4194B6016419710989E00E945A1078
:101B00003092A6012092A5013092A8012092A7014F
:101B10000E94370821E02093B40185E0E80EF11C13
:101B20000B5F1F4F91E0013A190709F06ACF6091EE
:101B300087017091880143E0809185019091860131
:101B40000E94F4128C81882339F06A817B8141E004
:101B5000888199810E94F4122596E1E0C13ADE075E
:101B600089F7DF91CF911F910F91FF90EF90DF9058
:101B7000CF90BF90AF909F908F907F906F905F902D
:101B80004F903F902F900895019790938C018093F0
:101B90008B0194CE019690938C0180938B019ACE09
:101BA000019790938A0180938901A1CE0196909329
:101BB0008A0180938901A7CE1F93CF93DF931F9251
:101BC000CDB7DEB7162F682F8AE049830E94BB0F7E
:101BD000612F8BE00E94BB0F4981642F89E00F9039
:101BE000DF91CF911F910C94BB0F83B7817F83BF8F
:101BF00083B7816083BF889583B78E7F83BF089545
:101C0000E091CC01F091CD0190818091CB01892BA5
:101C10008083E091C901F091CA0190818091C8014F
:101C2000809589238083E091CC01F091CD01908152
:101C30008091CB018095892380830895E091C9012B
:101C4000F091CA0190818091C801892B8083E09135
:101C5000CC01F091CD0190818091CB0180958923B9
:101C6000808308958EBD00000DB407FEFDCF8EB5B4
:101C700008950F931F93CF93DF931F92CDB7DEB7D5
:101C8000182F062F61E089E049830E94BB0F68ECA2
:101C900070E080E090E00E94F21060E0802F0E94EF
:101CA000BB0F82E090E00E94371E4981481729F05F
:101CB000642F82E090E00E943F1E64EF71E080E0BC
:101CC00090E00E94F21061E0802F0E94BB0F0E9402
:101CD0003B0B81238117D9F30F90DF91CF911F9197
:101CE0000F9108956038710518F54034510500F5DD
:101CF000E42FE695E695E695F0E047705527F695D2
:101D0000FE2FEE27F795E7956E0F7F1FFB01ED5233
:101D1000FE4F81E090E001C0880F4A95EAF7222348
:101D200019F09081892B03C080959081892380834D
:101D300008952F923F924F925F926F927F928F926F
:101D40009F92AF92BF92CF92DF92EF92FF920F934A
:101D50001F93CF93DF93CDB7DEB72A970FB6F894D2
:101D6000DEBF0FBECDBFFC016A3069F4248D808DCB
:101D7000918D38E0239F800D911D1124918F808FCC
:101D8000178A168AB0C06D3009F4ADC09A8789876A
:101D9000E48C338D828D8983208C318C0689178960
:101DA00000381105C4F0A985BA855C962C915C9722
:101DB000422F50E056968D919C915797B6E02B9FFD
:101DC000800D911D1124E985FA85978B868B258DD1
:101DD000211173C088C0F0E42F16310424F7C80124
:101DE00025E0E29E800D911D112418161906DCF6DF
:101DF0008E2D90E09B838A83C101A8E0EA9E800D2E
:101E0000911D11241816190674F625E0629FF00141
:101E10001124FD83EC83C12CD12C89859A850496ED
:101E20009F838E8395E0C916D10441F0EC81FD813A
:101E3000EC0DFD1DEE5EF84FF49001C0F12C310168
:101E400088E0482EF0FC02C0532E01C0598051108A
:101E50000CC0A9813A1309C0F6944A94EA81FB8127
:101E60006E0E7F1E4110EECF1BC058018A2D801BC5
:101E70008E1590F74301882D86198E1568F4252D4F
:101E8000A401B5018E819F8138870E94720EFFEFF9
:101E90008F1A9F0A3885EFCF2FEFA21AB20AE6CF2A
:101EA0008FEFC81AD80AAA81BB810A0F1B1FB6E0A0
:101EB000CB16D10409F0B6CF76CF6AEF6403900158
:101EC000659F300D112420583F4F281739075CF4C7
:101ED000A985BA85ED91FC9111970190F081E02DD3
:101EE0006AE0CD01099581E090E02A960FB6F8945A
:101EF000DEBF0FBECDBFDF91CF911F910F91FF903D
:101F0000EF90DF90CF90BF90AF909F908F907F9099
:101F10006F905F904F903F902F900895CF92DF92F7
:101F2000EF92FF920F931F93CF93DF936C017A018F
:101F30008B01C0E0D0E0CE15DF0589F0D8016D91AE
:101F40008D01D601ED91FC910190F081E02DC6014B
:101F50000995892B11F47E0102C02196ECCFC701AF
:101F6000DF91CF911F910F91FF90EF90DF90CF9075
:101F700008950E94351B362F90E0FC01EE51F34F7F
:101F80004491FC01E453F24F2491FC01E750F24FDD
:101F90008491882309F451C04423E1F150E0FA010F
:101FA0003197EF30F105B0F5EA5AFF4F0C942F1B33
:101FB000909180009F7707C0909180009F7D03C023
:101FC00090918000977F9093800024C094B59F7774
:101FD00002C094B59F7D94BD1DC0909190009F77E5
:101FE00007C0909190009F7D03C090919000977FD3
:101FF000909390000FC09091C0009F7703C0909184
:10200000C0009F7D9093C00005C09091C200977F53
:102010009093C200E82FF0E0EE0FFF1FE551F24F62
:10202000A591B4918FB7F894EC91311103C020952C
:102030002E2301C02E2B2C938FBF0895CF93DF93B7
:1020400090E0FC01E453F24F2491FC01E750F24F81
:102050008491882361F190E0880F991FFC01EF546F
:10206000F24FC591D491FC01E551F24FA591B49185
:10207000611109C09FB7F8948881209582238883D5
:10208000EC912E230BC0623061F49FB7F894388135
:10209000822F809583238883EC912E2B2C939FBFD6
:1020A00006C08FB7F894E8812E2B28838FBFDF916D
:1020B000CF9108951F93CF93DF93182FEB0161E029
:1020C0000E941E10209711F460E004C0CF3FD1059C
:1020D00039F461E0812FDF91CF911F910C94BB0FF8
:1020E000E12FF0E0EE51F34FE4914E2F50E0FA0172
:1020F0003197EF30F10508F06CC0EB59FF4F0C94AD
:102100002F1B84B5806884BDC7BD68C084B580625C
:1021100084BDC8BD63C080918000806880938000CA
:10212000D0938900C093880059C08091800080625C
:1021300080938000D0938B00C0938A004FC0809121
:102140008000886080938000D0938D00C0938C00C5
:1021500045C080919000806880939000D093990052
:10216000C09398003BC08091900080628093900063
:10217000D0939B00C0939A0031C0809190008860FA
:1021800080939000D0939D00C0939C0027C08091C5
:10219000C00080688093C0008091C0008F7B8093D6
:1021A000C000C093CF001AC08091C00080628093AD
:1021B000C000C093D00012C08091C200886080939C
:1021C000C2008091C2008B7F8093C200C093D20076
:1021D00005C0C038D1050CF07CCF76CFDF91CF9110
:1021E0001F9108958F929F92AF92BF92CF92DF92EC
:1021F000EF92FF926B017C010E94F6084B015C019B
:10220000C114D104E104F104F1F00E94F608DC01EC
:10221000CB0188199909AA09BB09883E9340A105F9
:10222000B10570F321E0C21AD108E108F10888EE87
:10223000880E83E0981EA11CB11CC114D104E104D6
:10224000F10419F7DDCFFF90EF90DF90CF90BF90B2
:10225000AF909F908F900895FC018091D2018111E1
:1022600003C08FEF9FEF08959FB7F89482E08093AB
:10227000E9002091F20030E01216130614F421E078
:1022800030E02115310559F0289884E68093D1017A
:102290008091F10080838091F200882319F09FBF24
:1022A000C90108958BE68093E800F9CFCF93DF93BF
:1022B0001F92CDB7DEB76983DC01ED91FC910280FE
:1022C000F381E02D41E050E0BE016F5F7F4F099543
:1022D0000F90DF91CF91089583E08093E900809182
:1022E000F200882319F08AE38093E8000895CF93E1
:1022F000DF931F92CDB7DEB7FC018485958597FDEE
:1023000005C02FEF3FEF358724870BC0CE01019624
:102310000E942C11019719F4898190E002C08FEF7F
:102320009FEF0F90DF91CF9108950F931F93CF935D
:10233000DF931F92CDB7DEB78C01FC0184859585B4
:1023400097FF0EC0CE0101960E942C11019719F43F
:10235000298130E002C02FEF3FEFF8013587248755
:10236000F801848595850F90DF91CF911F910F9192
:102370000895FC018485958597FD0BC09FB7F8945F
:1023800082E08093E9008091F2009FBF90E0019687
:1023900008959FB7F89482E08093E9008091F2005D
:1023A0009FBF90E008958F929F92AF92BF92CF927D
:1023B000DF92EF92FF920F931F93CF93DF935C0115
:1023C0006B018A0180910701882309F45EC0809126
:1023D000D201882309F459C08091D00180FF05C043
:1023E0008091E00082608093E000E8018AEFF82E9F
:1023F00093E0E92E2FE3822E3AE3932E209709F4FF
:102400003DC08FB7F894E092E9009091E80095FF05
:1024100006C09091F200282D291B922F01C090E058
:102420008FBF91110AC0FA94FF2079F161E070E04A
:1024300080E090E00E94F210E1CF292F30E0C21737
:10244000D3070CF49C2F8FB7F894E092E900209109
:10245000E80025FF11C0292F30E0C21BD30BF60185
:10246000915020F041914093F100FACFC20ED31E5B
:102470009091E80095FF13C08FBFC0CF5D9884E6B0
:102480008093F4051016110644F081E090E0F50108
:102490009383828380E090E005C0C80103C09092DE
:1024A000E800EACFDF91CF911F910F91FF90EF905D
:1024B000DF90CF90BF90AF909F908F9008950F9333
:1024C0001F93CF93DF938C01C0E0D0E0F801EC0FB5
:1024D000FD1F6491662371F0E091D605F091D70558
:1024E0000190F081E02D86ED95E00995892B11F0A2
:1024F0002196ECCFCE01DF91CF911F910F910895DE
:102500008F929F92AF92BF92CF92DF92EF92FF9203
:102510000F931F93CF93DF935C01E62EF12CC12C18
:10252000D12C00E010E090E8892E912C0E151F05AB
:102530006CF5C0E0D0E0FE0183E0F595E7958A9563
:10254000E1F7EC0DFD1DEA0DFB1D84919E01277046
:102550003327A40102C0559547952A95E2F7E82F45
:10256000F0E0E423F523EF2B39F021E0A801BE01D0
:102570008AED95E00E94720E2196C038D105D9F6F9
:102580000F5F1F4F50E1C50ED11CD0CFDF91CF910F
:102590001F910F91FF90EF90DF90CF90BF90AF9081
:1025A0009F908F90089520E083ED91E0B22FB111BC
:1025B000BFEFFC010024B193B193B193B1930394A5
:1025C000D1F708958091D3018EBDE4EDF1E08191C2
:1025D0000DB407FEFDCF8EBD85E0E33DF807B9F7EA
:1025E0000DB407FEFDCF08952F923F924F925F9258
:1025F0006F927F928F929F92AF92BF92CF92DF9213
:10260000EF92FF920F931F93CF93DF9300D000D0F0
:10261000CDB7DEB78C017B01242F30E03C832B83C8
:1026200081E090E05C01A21AB30AC90191958195FD
:1026300091091C01220C331CA901460F571F21E0F0
:10264000B8018AED95E00E94720EA7018B819C81F2
:10265000481B590B21E0B8018AED95E00E94720EEB
:102660006B817C81600F711F21E0A7018AED95E0ED
:102670000E94720EB801EB81FC816E1B7F0B21E082
:10268000A7018AED95E00E94720EC12CD12C21E0A9
:1026900030E03A8329832B813C81C216D3060CF0AB
:1026A0006EC0B7FC0AC08B819C8101979C838B8391
:1026B00092E0290E311CA20CB31CEFEFCE1ADE0AF9
:1026C00029813A812E5F3F4F3A832983A20EB31EA0
:1026D0003601600E711E21E08B809C808E0C9F1C49
:1026E000A401B3018AED95E00E94720E28014C18F6
:1026F0005D0821E0A401B2018AED95E00E94720E0E
:1027000021E047018B819C81881A990AA401B301B9
:102710008AED95E00E94720E21E0A401B2018AEDDB
:1027200095E00E94720E46018E0C9F1C21E0A401D0
:102730006B807C80600E711EB3018AED95E00E9473
:10274000720E21E0A4012801EB81FC814E1A5F0A80
:10275000B2018AED95E00E94720E47018C189D0827
:1027600021E0A401B3018AED95E00E94720E21E000
:10277000A401B2018AED95E00E94720E8CCF0F90F9
:102780000F900F900F90DF91CF911F910F91FF90BD
:10279000EF90DF90CF90BF90AF909F908F907F9001
:1027A0006F905F904F903F902F9008958091F90522
:1027B00081110DC082E08093F50584E08093F605D9
:1027C0001092F8051092F70581E08093F90585EFE6
:1027D00095E008951F920F920FB60F9211248F93D8
:1027E0009F938091E1009091E100937F9093E100AD
:1027F00083FF0FC01092E90091E09093EB001092DC
:10280000EC0092E39093ED001092D20198E0909347
:10281000F00082FF20C093E09093E9009091F200D5
:10282000992319F09AE39093E8009091F405992385
:1028300039F09091F40591509093F405992389F122
:102840009091D101992339F09091D10191509093B9
:10285000D101992341F184FF10C08091E2008E7E66
:1028600081608093E2008091E1008F7E8093E1009F
:102870008091D0018E7E806111C080FF16C0809152
:10288000E2008E7E80618093E2008091E1008E7E86
:102890008093E1008091D0018E7E81608093D00191
:1028A00004C05D9ACDCF289AD6CF9F918F910F907B
:1028B0000FBE0F901F9018954091560650915706E5
:1028C000209154063091550642175307B4F4909165
:1028D000E8009570E1F39091E80092FD19C08093B3
:1028E000F100809156069091570601968F739927B3
:1028F000892B19F48EEF8093E80080915606909111
:1029000057060196909357068093560681E00895E6
:1029100080E00895CF92DF92EF92FF920F931F9382
:10292000CF93DF931F92CDB7DEB7182F062FE42E7B
:10293000862F880F8E5F99830E945C1483E00E942B
:102940005C14F12EC12E9981D92E8C2D8F198017F0
:1029500098F4F601E7FE02C0849101C080810E94D4
:102960005C14182F80E00E945C148123FFEFCF1AC3
:10297000DF0A8111EACF01C081E00F90DF91CF9192
:102980001F910F91FF90EF90DF90CF900895DF920D
:10299000EF92FF920F931F93CF93DF93D82E8A016C
:1029A0007B01E40EF51EEB01CE15DF0571F0D7FEBD
:1029B00003C0FE01849101C088810E945C142196AD
:1029C0008111F2CF8FEF9FEF01C0C801DF91CF914E
:1029D0001F910F91FF90EF90DF900895615030F0BC
:1029E0002091F100FC0120830196F8CF289884E61D
:1029F0008093D10108950F931F93CF93DF931F927C
:102A0000CDB7DEB782E0898342E450E061E47EE046
:102A100080E80E94C7140E94D613DC0112960D9123
:102A20001C9113970115110569F0D801ED91FC91E6
:102A30000280F381E02DBE016F5F7F4FC8010995D1
:102A400097FF07C089810F90DF91CF911F910F9160
:102A50000895F80100851185E5CF1F920F920FB6FA
:102A60000F921124CF92DF92EF92FF920F931F9358
:102A70002F933F934F935F936F937F938F939F9386
:102A8000AF93BF93EF93FF93CF93DF93CDB7DEB7B1
:102A90006C97DEBFCDBF1092E9008091E80083FF04
:102AA000FAC168E0CE0145960E94EE1482EF809351
:102AB000E8008D8987FF05C09091E80090FFFCCF6A
:102AC00003C09EEF9093E800982F907609F0C6C05F
:102AD0009E892F89188D91110CC0803829F480911E
:102AE00052068093F10002C01092F1001092F100A2
:102AF00047C1422F50E0512B913051F4811140C118
:102B00004130510509F03CC1809152068D7F0BC0C8
:102B1000933061F4811134C14130510509F030C165
:102B2000809152068260809352062AC1953041F40A
:102B30008091E80080FFFCCF20682093E30020C153
:102B4000963009F05FC0EB8CFC8C1092E90010927B
:102B5000570610925606123091F5109255061092B3
:102B600054060E94FB1499E0BE016F5F7F4FDB01AA
:102B7000E92F1D92EA95E9F799831A8391E09E83E4
:102B800090EA98879AEF99872091560630915706D8
:102B9000275F3F4F3C832B838D831092E900109277
:102BA000570610925606F0925506E092540649E0F8
:102BB00050E080E00E94C7140E94FB14E1C0F09234
:102BC0005506E09254060E94D613DC011296ED9051
:102BD000FC901397E114F10409F4C0C0D701ED9102
:102BE000FC910480F581E02DBE016B5E7F4FC70133
:102BF0000995009719F00CF0C3C0C6C0F701E08436
:102C0000F184E8CF973009F4BFC0983021F481E017
:102C10008093F100B5C0993009F0B2C0837009F01B
:102C2000B3C0E3E3F1E081E021E036E39081992352
:102C300061F08093E9002093EB0091919093EC0078
:102C40003093ED008F5F873089F78EE78093EA003D
:102C50001092EA008F898093D20192C08B8D9C8D57
:102C60001092E9001092570610925606909355065E
:102C700080935406898D811156C08E899D89913A21
:102C800059F4813209F080C047E050E060E071E023
:102C900080E00E94C71474C0913209F075C083327D
:102CA00089F4888D90E0982F88272F89822BA0E0C7
:102CB000B0E08093080190930901A0930A01B093BA
:102CC0000B015EC0803269F48091E80082FFFCCF86
:102CD00067E080E091E00E94EE148BEF8093E800C3
:102CE00006C0823209F04CC08F8980930701809121
:102CF0005106882319F0EEEFFAE002C0E0E0F8E0B8
:102D00008091000190910101A0910201B091030115
:102D1000803B9440A105B10509F088C0809107016E
:102D200080FFA0C083C00E94D613DC0112960D91D3
:102D30001C9113970115110539F1D801ED91FC9102
:102D40000190F081E02DBE016B5E7F4FC8010995B7
:102D5000811116C0F80100851185ECCF1130C1F04A
:102D6000133091F48F89882309F455C08230E9F437
:102D700040E860E183E99EE00E948A14882321F004
:102D80008EEF8093E80087C081E28093EB0083C0E0
:102D90008B8D9C8D089711F41093530680915306E8
:102DA000811136C064EA7EE038C0813029F440E801
:102DB0006BE087E89EE0E0CF833031F70E94D613C6
:102DC000DC011296ED90FC9013978E010F5F1F4F60
:102DD0006801E114F10479F0D701ED91FC910680CE
:102DE000F781E02DB801C7010995080F111DF70102
:102DF000E084F184EECFD8011C92F601019000200E
:102E0000E9F73197BF016C197D0940E0C601B4CFE5
:102E100066EB7EE002C063E87EE06115710509F4AF
:102E2000B3CFFB01449150E080E833CF0FB6F89464
:102E3000A895809160008861809360001092600086
:102E40000FBEA895EE3F2AE0F20739F08091FE0A06
:102E50009091FF0A9183808393CF1092FF0A109282
:102E6000FE0A8ECFEE3F8AE0F80731F08081918133
:102E70009093FF0A8093FE0A87E797E79183808308
:102E80009BE088E10FB6F894A895809360000FBE90
:102E90009093600075CF6C960FB6F894DEBF0FBEAE
:102EA000CDBFDF91CF91FF91EF91BF91AF919F91F6
:102EB0008F917F916F915F914F913F912F911F91D2
:102EC0000F91FF90EF90DF90CF900F900FBE0F907B
:102ED0001F9018950F931F93CF93DF938C018AE077
:102EE00090E00E94371E9FEF980F9E3F58F522E317
:102EF00030E0D80157963C932E93569728E330E064
:102F000059963C932E935897CBE0D0E0D801ED91A1
:102F1000FC910190F081E02D682FC8010995CE0148
:102F20000E94371E2196C131D10581F70E94E2121D
:102F30006CED75E080E090E0DF91CF911F910F91F3
:102F40000C94F210DF91CF911F910F910895049787
:102F50000C946A17789484B5826084BD84B58160CE
:102F600084BD85B5826085BD85B5816085BD809154
:102F70006E00816080936E001092810080918100CC
:102F800082608093810080918100816080938100C4
:102F900080918000816080938000809191008260A8
:102FA0008093910080919100816080939100809145
:102FB00090008160809390008091C1008460809334
:102FC000C1008091C10082608093C1008091C100E6
:102FD00081608093C1008091C30081608093C300B1
:102FE0008091C00082608093C0008091C2008160A7
:102FF0008093C20080917A00846080937A008091EF
:103000007A00826080937A0080917A008160809358
:103010007A0080917A00806880937A001092D201C1
:10302000109252061092D0018091D7008160809357
:10303000D70080EA8093D80089B5806189BD89B5C1
:10304000826089BD09B400FEFDCF61E070E080E0E0
:1030500090E00E94F2108091D8008F7C8061809374
:10306000D8008091E000807F8093E0008091E100B3
:103070008E7E8093E1008DE08093E200559A209A45
:10308000EEEFFFE7859194918B3F9C4D19F481E021
:1030900080935106CFB7F8948091CF01811127C05A
:1030A000EAE0FEE08491EDEDFDE09491E82FF0E0A0
:1030B000EE0FFF1FEF54F24FA591B491EC91E9236D
:1030C00021F461E081E10E94BB0F61E081E10E9497
:1030D0001E108CB580618CBD8CB580648CBD61E0A8
:1030E0008FE00E941E1061E080E10E941E1080911E
:1030F000CF018F5F8093CF01CFBFC8E1DEE0FE013B
:103100008491229631966491882319F00E941E10B2
:10311000F6CF61E086E00E94BB0F61E070E080E0E6
:1031200090E00E94F21060E086E00E94BB0F6AE02F
:1031300070E080E090E00E94F21061E086E00E9482
:10314000BB0FE5E0FEE0E491F0E0EE0FFF1FE5517C
:10315000F24F859194919093CD018093CC01E8ED4D
:10316000FDE0E491E093CB01EDEFFDE0E491F0E0D0
:10317000EE0FFF1FE551F24F859194919093CA0194
:103180008093C901E0EDFDE0E491E093C8018CB5C6
:103190008C7F8CBD8DB581608DBD0E94000ECFEB04
:1031A000DDE01C2F135FFE0184910E94320E2196F8
:1031B0001C13F9CF0E941E0E8091640081608093E1
:1031C0006400809164008260809364008091640058
:1031D00080688093640080916400806480936400C0
:1031E00080916500816080936500C0E0D4E080E05C
:1031F0000E94320E2197D9F70E943B0B87FF3CC0FB
:103200000E94000E85EA0E94320E0E941E0E40E0CF
:1032100060E080E00E94DC0D0E943B0B84FD03C057
:103220000E94F50DF9CF41E061E081E00E94DC0DE4
:103230000E94000E84EA0E94320E0E941E0E1CC0E4
:1032400060E089E00E94BB0F0E943B0B84788438C9
:1032500021F44FEF6BE00E94390E0E943B0B84710A
:10326000843121F440E06AE00E94390E68EC70E09D
:1032700080E090E00E94F2100E943B0B82FDE0CFC4
:1032800061E089E00E94BB0F82E090E00E94371E5F
:10329000882359F061E085E00E941E1061E08DE016
:1032A0000E941E1081E08093C70160E08AE00E94C6
:1032B000BB0FCEEEDFEF08E010E00E943B0B86FF75
:1032C00006C041E061E081E00E94DC0D93C09C2ECD
:1032D0002CEFC21303C041E060E005C038E1C31326
:1032E00005C040E061E081E00E94DC0D0E94D31245
:1032F00040EF941694F40E94E2126BE170E080E0DB
:1033000090E00E94F21050EF95125BC06AEF70E0FF
:1033100080E090E00E94F21054C09E01D7FF04C0EC
:10332000222733272C1B3D0B27703327CE01D7FDD7
:10333000079653E0959587955A95E1F7D7FF05C015
:103340000197B801621B730B9B017C01F694FE2C64
:10335000EE24F794E79440E050E03801621A730AD3
:10336000F701E058FF4F5F018F3FFFEF9F0744F4E5
:103370000196485A5F4F7501403B510589F7BBCF15
:10338000D701A959BD4F60E070E08F3FEFEF9E0776
:1033900009F40FC1FB01E40FF51FEF5FF24FE49159
:1033A0006D01CA18DB08CE0CDF1CF0E02F01022EE5
:1033B00001C0440C0A94EAF7F60180804828408254
:1033C000F8C02196C931D10509F077CF6EEE72E0D1
:1033D00080E090E00E94F21061E089E00E94BB0F63
:1033E000E091DA05F091DB050190F081E02D8AEDA6
:1033F00095E0099562E370E080E090E00E94F210B1
:103400000E943B0B8111F6CF809164008E7F8093E8
:10341000640087EC80937C0080E280937B0062E014
:1034200070E080E090E00E94F21080917A00806469
:1034300080937A0080917A0086FDFCCFC09178005D
:10344000D0917900C095D0958EE580937C0062E0A4
:1034500070E080E090E00E94F21080917A00806439
:1034600080937A0080917A0086FDFCCF00917800ED
:10347000109179000E94F6089B01AC0120953095CF
:1034800040955095009510950C9FD0010D9FB00D63
:103490001C9FB00D11240E946C1E6B017C010E94C8
:1034A000F6086C0D7D1D8E1D9F1D61157105810532
:1034B000910511F00E942E1E80916400816080931E
:1034C000640081E28093E10585E00E94B10A8DE00D
:1034D0000E94B10AC0E0D0E011E00E941B092091D7
:1034E000EA05222391F02091E205F62FF21BF093DA
:1034F000EB052091DD053091DE052F5F3F4F3093C6
:10350000DE052093DD051092EA05C090E605D09017
:10351000E705E090E805F090E9056C157D058E055E
:103520009F0540F48C2D861B823008F43CC00E941D
:10353000F50D39C02091E1056B017C01C20ED11C53
:10354000E11CF11CC092E605D092E705E092E80587
:10355000F092E9056093E2057093E3058093E4053A
:103560009093E5051093EA058091DF058093E005CF
:103570000E943B0B8093DF050E94D3121092EF054F
:103580001092EE051092ED051092EC05E091CE013F
:10359000F0E0EE0FFF1FE95CF14F85919491FC0183
:1035A00009950E94E212209709F497CF0E9400002B
:1035B00094CF2115310581F0FB01E40FF51FEF5F7A
:1035C000F24FE491F0E0062C02C0F595E7950A94DD
:1035D000E2F7DC90ED29EC936F5F7F4F1196683531
:1035E000710509F0D2CEC4CEE1E0F6E0138212827A
:1035F00088EE93E0A0E0B0E084839583A683B78350
:1036000086E191E0918380838FEF9FEF9587848798
:10361000E6EDF5E0138212821186128680E183873F
:1036200010861782108A118A128A138A148A86E2F7
:1036300091E09183808380E391E095838483178A6E
:10364000168A118E108E81E0828F138E848F158ED4
:1036500087EC98E09093D4058093D3050895EE0FFE
:10366000FF1F0590F491E02D099481E090E0F8941B
:103670000C94E71EAEE0B0E0E0E4FBE10C94BE1E6B
:103680000D891E8986E08C831A8309838FEF9FE75B
:103690009E838D83AE01475E5F4F6F89788DCE012B
:1036A00001960E945D1B2F813885F801E20FF31F00
:1036B00010822E96E4E00C94DA1EACE0B0E0E3E673
:1036C000FBE10C94B01E7C016B018A01FC011782A6
:1036D0001682838181FFBDC1CE0101964C01F701A5
:1036E0009381F60193FD859193FF81916F0188236A
:1036F00009F4ABC1853239F493FD859193FF819133
:103700006F01853229F4B70190E00E94451DE7CF93
:10371000512C312C20E02032A0F48B3269F030F4AF
:10372000803259F0833269F420612CC08D3239F037
:10373000803339F4216026C02260246023C02860D1
:1037400021C027FD27C030ED380F3A3078F426FF2E
:1037500006C0FAE05F9E300D1124532E13C08AE09C
:10376000389E300D1124332E20620CC08E3221F48D
:1037700026FD6BC1206406C08C3611F4206802C09F
:10378000883641F4F60193FD859193FF81916F0195
:103790008111C1CF982F9F7D9554933028F40C5FF1
:1037A0001F4FFFE3F9830DC0833631F0833771F08B
:1037B000833509F05BC022C0F801808189830E5FE8
:1037C0001F4F44244394512C540115C03801F2E09A
:1037D0006F0E711CF801A080B18026FF03C0652D1B
:1037E00070E002C06FEF7FEFC5012C870E943A1D89
:1037F0002C0183012C852F77222E17C03801F2E08F
:103800006F0E711CF801A080B18026FF03C0652DEA
:1038100070E002C06FEF7FEFC5012C870E942F1D63
:103820002C012C852068222E830123FC1BC0832DB4
:1038300090E048165906B0F4B70180E290E00E948B
:10384000451D3A94F4CFF50127FC859127FE81911F
:103850005F01B70190E00E94451D31103A94F1E0FC
:103860004F1A51084114510471F7E5C0843611F024
:10387000893639F5F80127FF07C06081718182819F
:1038800093810C5F1F4F08C060817181072E000C6F
:10389000880B990B0E5F1F4F2F76722E97FF09C072
:1038A00090958095709561957F4F8F4F9F4F2068C1
:1038B000722E2AE030E0A4010E947D1DA82EA818D7
:1038C00044C0853729F42F7EB22E2AE030E025C08F
:1038D000F22FF97FBF2E8F36C1F018F4883579F0BA
:1038E000B4C0803719F0883721F0AFC02F2F206186
:1038F000B22EB4FE0DC08B2D8460B82E09C024FFFB
:103900000AC09F2F9660B92E06C028E030E005C09F
:1039100020E130E002C020E132E0F801B7FE07C04C
:1039200060817181828193810C5F1F4F06C060812D
:10393000718180E090E00E5F1F4FA4010E947D1D09
:10394000A82EA818FB2DFF777F2E76FE0BC0372DF3
:103950003E7FA51450F474FE0AC072FC08C0372DD7
:103960003E7E05C0BA2C372D03C0BA2C01C0B52C41
:1039700034FF0DC0FE01EA0DF11D8081803311F48A
:10398000397E09C032FF06C0B394B39404C0832FBC
:10399000867809F0B39433FD13C030FF06C05A2C6B
:1039A000B31418F4530C5B18B32CB31468F4B701B8
:1039B00080E290E03C870E94451DB3943C85F5CFA2
:1039C000B31410F43B1801C0312C34FF12C0B701FE
:1039D00080E390E03C870E94451D3C8532FF17C084
:1039E00031FD03C088E790E002C088E590E0B701B0
:1039F0000CC0832F867859F031FF02C08BE201C0E2
:103A000080E237FD8DE2B70190E00E94451DA514CC
:103A100038F4B70180E390E00E94451D5A94F7CF37
:103A2000AA94F401EA0DF11D8081B70190E00E9493
:103A3000451DA110F5CF332009F451CEB70180E226
:103A400090E00E94451D3A94F6CFF7018681978158
:103A500002C08FEF9FEF2C96E2E10C94CC1EFC018C
:103A60000590615070400110D8F7809590958E0FA9
:103A70009F1F0895FC016150704001900110D8F71C
:103A8000809590958E0F9F1F08950F931F93CF934E
:103A9000DF93FB01238121FD03C08FEF9FEF28C03F
:103AA00022FF16C046815781248135814217530772
:103AB00044F4A081B1819D012F5F3F4F318320836A
:103AC0008C93268137812F5F3F4F3783268310C029
:103AD000EB01092F182F0084F185E02D0995892B22
:103AE000E1F68E819F8101969F838E83812F902F97
:103AF000DF91CF911F910F910895FA01AA272830E5
:103B000051F1203181F1E8946F936E7F6E5F7F4FAA
:103B10008F4F9F4FAF4FB1E03ED0B4E03CD0670F26
:103B2000781F891F9A1FA11D680F791F8A1F911D79
:103B3000A11D6A0F711D811D911DA11D20D009F4C9
:103B400068943F912AE0269F11243019305D31930B
:103B5000DEF6CF010895462F4770405D4193B3E0F4
:103B60000FD0C9F7F6CF462F4F70405D4A3318F09B
:103B7000495D31FD4052419302D0A9F7EACFB4E04C
:103B8000A6959795879577956795BA95C9F7009704
:103B90006105710508959B01AC010A2E06945795A5
:103BA000479537952795BA95C9F7620F731F841FFC
:103BB000951FA01D08958F929F92AF92BF92CF92B2
:103BC000DF92EF92FF92CF93DF93EC0168817981CE
:103BD0008A819B81611571058105910521F464E25B
:103BE00079ED8BE597E02DE133EF41E050E00E9465
:103BF0004D1E49015A019B01AC01A7EAB1E40E94A4
:103C00006C1E6B017C01ACEEB4EFA50194010E9427
:103C10007A1EDC01CB018C0D9D1DAE1DBF1DB7FFB3
:103C200003C00197A109B04888839983AA83BB8305
:103C3000BC01CD019F77DF91CF91FF90EF90DF9096
:103C4000CF90BF90AF909F908F9008950E94DB1D02
:103C500008958CE091E00E94DB1D089560930C01B3
:103C600070930D0180930E0190930F010895F999BF
:103C7000FECF92BD81BDF89A992780B50895262F71
:103C8000F999FECF1FBA92BD81BD20BD0FB6F89441
:103C9000FA9AF99A0FBE01960895052E97FB1EF425
:103CA00000940E94641E57FD07D00E947F1E07FCEF
:103CB00003D04EF40C94641E509540953095219598
:103CC0003F4F4F4F5F4F0895909580957095619548
:103CD0007F4F8F4F9F4F08950E94A11EA59F900D6B
:103CE000B49F900DA49F800D911D11240895B7FFDE
:103CF0000C946C1E0E946C1E821B930B0895A1E213
:103D00001A2EAA1BBB1BFD010DC0AA1FBB1FEE1F55
:103D1000FF1FA217B307E407F50720F0A21BB30BA0
:103D2000E40BF50B661F771F881F991F1A9469F71C
:103D300060957095809590959B01AC01BD01CF0178
:103D40000895A29FB001B39FC001A39F700D811D74
:103D50001124911DB29F700D811D1124911D089594
:103D60002F923F924F925F926F927F928F929F928B
:103D7000AF92BF92CF92DF92EF92FF920F931F9379
:103D8000CF93DF93CDB7DEB7CA1BDB0B0FB6F8942A
:103D9000DEBF0FBECDBF09942A88398848885F846A
:103DA0006E847D848C849B84AA84B984C884DF80DB
:103DB000EE80FD800C811B81AA81B981CE0FD11DBF
:103DC0000FB6F894DEBF0FBECDBFED010895F89495
:023DD000FFCF23
:103DD20000E1000000000000FFFFFFFF0100000003
:103DE2000301000000005611D311B911771195118A
:103DF2006C1100000000990E8E0F6A17FCFF000084
:0C3E0200A71700C18081000000256400AB
:00000001FF
